{
  "contractName": "Certification",
  "abi": [
    {
      "inputs": [],
      "stateMutability": "nonpayable",
      "type": "constructor"
    },
    {
      "inputs": [
        {
          "internalType": "address",
          "name": "sender",
          "type": "address"
        },
        {
          "internalType": "uint256",
          "name": "tokenId",
          "type": "uint256"
        },
        {
          "internalType": "address",
          "name": "owner",
          "type": "address"
        }
      ],
      "name": "ERC721IncorrectOwner",
      "type": "error"
    },
    {
      "inputs": [
        {
          "internalType": "address",
          "name": "operator",
          "type": "address"
        },
        {
          "internalType": "uint256",
          "name": "tokenId",
          "type": "uint256"
        }
      ],
      "name": "ERC721InsufficientApproval",
      "type": "error"
    },
    {
      "inputs": [
        {
          "internalType": "address",
          "name": "approver",
          "type": "address"
        }
      ],
      "name": "ERC721InvalidApprover",
      "type": "error"
    },
    {
      "inputs": [
        {
          "internalType": "address",
          "name": "operator",
          "type": "address"
        }
      ],
      "name": "ERC721InvalidOperator",
      "type": "error"
    },
    {
      "inputs": [
        {
          "internalType": "address",
          "name": "owner",
          "type": "address"
        }
      ],
      "name": "ERC721InvalidOwner",
      "type": "error"
    },
    {
      "inputs": [
        {
          "internalType": "address",
          "name": "receiver",
          "type": "address"
        }
      ],
      "name": "ERC721InvalidReceiver",
      "type": "error"
    },
    {
      "inputs": [
        {
          "internalType": "address",
          "name": "sender",
          "type": "address"
        }
      ],
      "name": "ERC721InvalidSender",
      "type": "error"
    },
    {
      "inputs": [
        {
          "internalType": "uint256",
          "name": "tokenId",
          "type": "uint256"
        }
      ],
      "name": "ERC721NonexistentToken",
      "type": "error"
    },
    {
      "anonymous": false,
      "inputs": [
        {
          "indexed": true,
          "internalType": "address",
          "name": "owner",
          "type": "address"
        },
        {
          "indexed": true,
          "internalType": "address",
          "name": "approved",
          "type": "address"
        },
        {
          "indexed": true,
          "internalType": "uint256",
          "name": "tokenId",
          "type": "uint256"
        }
      ],
      "name": "Approval",
      "type": "event"
    },
    {
      "anonymous": false,
      "inputs": [
        {
          "indexed": true,
          "internalType": "address",
          "name": "owner",
          "type": "address"
        },
        {
          "indexed": true,
          "internalType": "address",
          "name": "operator",
          "type": "address"
        },
        {
          "indexed": false,
          "internalType": "bool",
          "name": "approved",
          "type": "bool"
        }
      ],
      "name": "ApprovalForAll",
      "type": "event"
    },
    {
      "anonymous": false,
      "inputs": [
        {
          "indexed": true,
          "internalType": "address",
          "name": "from",
          "type": "address"
        },
        {
          "indexed": true,
          "internalType": "address",
          "name": "to",
          "type": "address"
        },
        {
          "indexed": true,
          "internalType": "uint256",
          "name": "tokenId",
          "type": "uint256"
        }
      ],
      "name": "Transfer",
      "type": "event"
    },
    {
      "inputs": [
        {
          "internalType": "address",
          "name": "to",
          "type": "address"
        },
        {
          "internalType": "uint256",
          "name": "tokenId",
          "type": "uint256"
        }
      ],
      "name": "approve",
      "outputs": [],
      "stateMutability": "nonpayable",
      "type": "function"
    },
    {
      "inputs": [
        {
          "internalType": "address",
          "name": "owner",
          "type": "address"
        }
      ],
      "name": "balanceOf",
      "outputs": [
        {
          "internalType": "uint256",
          "name": "",
          "type": "uint256"
        }
      ],
      "stateMutability": "view",
      "type": "function"
    },
    {
      "inputs": [
        {
          "internalType": "uint256",
          "name": "tokenId",
          "type": "uint256"
        }
      ],
      "name": "getApproved",
      "outputs": [
        {
          "internalType": "address",
          "name": "",
          "type": "address"
        }
      ],
      "stateMutability": "view",
      "type": "function"
    },
    {
      "inputs": [
        {
          "internalType": "address",
          "name": "owner",
          "type": "address"
        },
        {
          "internalType": "address",
          "name": "operator",
          "type": "address"
        }
      ],
      "name": "isApprovedForAll",
      "outputs": [
        {
          "internalType": "bool",
          "name": "",
          "type": "bool"
        }
      ],
      "stateMutability": "view",
      "type": "function"
    },
    {
      "inputs": [],
      "name": "name",
      "outputs": [
        {
          "internalType": "string",
          "name": "",
          "type": "string"
        }
      ],
      "stateMutability": "view",
      "type": "function"
    },
    {
      "inputs": [
        {
          "internalType": "uint256",
          "name": "tokenId",
          "type": "uint256"
        }
      ],
      "name": "ownerOf",
      "outputs": [
        {
          "internalType": "address",
          "name": "",
          "type": "address"
        }
      ],
      "stateMutability": "view",
      "type": "function"
    },
    {
      "inputs": [
        {
          "internalType": "address",
          "name": "from",
          "type": "address"
        },
        {
          "internalType": "address",
          "name": "to",
          "type": "address"
        },
        {
          "internalType": "uint256",
          "name": "tokenId",
          "type": "uint256"
        }
      ],
      "name": "safeTransferFrom",
      "outputs": [],
      "stateMutability": "nonpayable",
      "type": "function"
    },
    {
      "inputs": [
        {
          "internalType": "address",
          "name": "from",
          "type": "address"
        },
        {
          "internalType": "address",
          "name": "to",
          "type": "address"
        },
        {
          "internalType": "uint256",
          "name": "tokenId",
          "type": "uint256"
        },
        {
          "internalType": "bytes",
          "name": "data",
          "type": "bytes"
        }
      ],
      "name": "safeTransferFrom",
      "outputs": [],
      "stateMutability": "nonpayable",
      "type": "function"
    },
    {
      "inputs": [
        {
          "internalType": "address",
          "name": "operator",
          "type": "address"
        },
        {
          "internalType": "bool",
          "name": "approved",
          "type": "bool"
        }
      ],
      "name": "setApprovalForAll",
      "outputs": [],
      "stateMutability": "nonpayable",
      "type": "function"
    },
    {
      "inputs": [
        {
          "internalType": "bytes4",
          "name": "interfaceId",
          "type": "bytes4"
        }
      ],
      "name": "supportsInterface",
      "outputs": [
        {
          "internalType": "bool",
          "name": "",
          "type": "bool"
        }
      ],
      "stateMutability": "view",
      "type": "function"
    },
    {
      "inputs": [],
      "name": "symbol",
      "outputs": [
        {
          "internalType": "string",
          "name": "",
          "type": "string"
        }
      ],
      "stateMutability": "view",
      "type": "function"
    },
    {
      "inputs": [
        {
          "internalType": "uint256",
          "name": "tokenId",
          "type": "uint256"
        }
      ],
      "name": "tokenURI",
      "outputs": [
        {
          "internalType": "string",
          "name": "",
          "type": "string"
        }
      ],
      "stateMutability": "view",
      "type": "function"
    },
    {
      "inputs": [
        {
          "internalType": "address",
          "name": "from",
          "type": "address"
        },
        {
          "internalType": "address",
          "name": "to",
          "type": "address"
        },
        {
          "internalType": "uint256",
          "name": "tokenId",
          "type": "uint256"
        }
      ],
      "name": "transferFrom",
      "outputs": [],
      "stateMutability": "nonpayable",
      "type": "function"
    },
    {
      "inputs": [
        {
          "internalType": "address",
          "name": "recipientAddress",
          "type": "address"
        },
        {
          "internalType": "string",
          "name": "title",
          "type": "string"
        },
        {
          "internalType": "string",
          "name": "issuer",
          "type": "string"
        },
        {
          "internalType": "string",
          "name": "metadata",
          "type": "string"
        }
      ],
      "name": "issueCertification",
      "outputs": [
        {
          "internalType": "uint256",
          "name": "",
          "type": "uint256"
        }
      ],
      "stateMutability": "nonpayable",
      "type": "function"
    },
    {
      "inputs": [
        {
          "internalType": "uint256",
          "name": "tokenId",
          "type": "uint256"
        }
      ],
      "name": "getCertification",
      "outputs": [
        {
          "internalType": "string",
          "name": "title",
          "type": "string"
        },
        {
          "internalType": "address",
          "name": "recipientAddress",
          "type": "address"
        },
        {
          "internalType": "address",
          "name": "recipient",
          "type": "address"
        },
        {
          "internalType": "string",
          "name": "issuer",
          "type": "string"
        },
        {
          "internalType": "string",
          "name": "metadata",
          "type": "string"
        }
      ],
      "stateMutability": "view",
      "type": "function"
    }
  ],
  "bytecode": "0x608060405234801561000f575f80fd5b506040518060400160405280600d81526020016c21b2b93a34b334b1b0ba34b7b760991b8152506040518060400160405280600481526020016310d1549560e21b815250815f9081610061919061010e565b50600161006e828261010e565b5050506101cd565b634e487b7160e01b5f52604160045260245ffd5b600181811c9082168061009e57607f821691505b6020821081036100bc57634e487b7160e01b5f52602260045260245ffd5b50919050565b601f82111561010957805f5260205f20601f840160051c810160208510156100e75750805b601f840160051c820191505b81811015610106575f81556001016100f3565b50505b505050565b81516001600160401b0381111561012757610127610076565b61013b81610135845461008a565b846100c2565b602080601f83116001811461016e575f84156101575750858301515b5f19600386901b1c1916600185901b1785556101c5565b5f85815260208120601f198616915b8281101561019c5788860151825594840194600190910190840161017d565b50858210156101b957878501515f19600388901b60f8161c191681555b505060018460011b0185555b505050505050565b611508806101da5f395ff3fe608060405234801561000f575f80fd5b50600436106100f0575f3560e01c806370a0823111610093578063c87b56dd11610063578063c87b56dd146101f9578063cc22cd281461020c578063e985e9c51461021f578063ec981eac14610232575f80fd5b806370a08231146101aa57806395d89b41146101cb578063a22cb465146101d3578063b88d4fde146101e6575f80fd5b8063095ea7b3116100ce578063095ea7b31461015c57806323b872dd1461017157806342842e0e146101845780636352211e14610197575f80fd5b806301ffc9a7146100f457806306fdde031461011c578063081812fc14610131575b5f80fd5b610107610102366004610f81565b610256565b60405190151581526020015b60405180910390f35b6101246102a7565b6040516101139190610fca565b61014461013f366004610fdc565b610336565b6040516001600160a01b039091168152602001610113565b61016f61016a36600461100e565b61035d565b005b61016f61017f366004611036565b61036c565b61016f610192366004611036565b6103fa565b6101446101a5366004610fdc565b610419565b6101bd6101b836600461106f565b610423565b604051908152602001610113565b610124610468565b61016f6101e1366004611088565b610477565b61016f6101f4366004611148565b610482565b610124610207366004610fdc565b610499565b6101bd61021a3660046111dd565b61050a565b61010761022d366004611264565b6105ec565b610245610240366004610fdc565b610619565b604051610113959493929190611295565b5f6001600160e01b031982166380ac58cd60e01b148061028657506001600160e01b03198216635b5e139f60e01b145b806102a157506301ffc9a760e01b6001600160e01b03198316145b92915050565b60605f80546102b5906112f0565b80601f01602080910402602001604051908101604052809291908181526020018280546102e1906112f0565b801561032c5780601f106103035761010080835404028352916020019161032c565b820191905f5260205f20905b81548152906001019060200180831161030f57829003601f168201915b5050505050905090565b5f6103408261088a565b505f828152600460205260409020546001600160a01b03166102a1565b6103688282336108c2565b5050565b6001600160a01b03821661039a57604051633250574960e11b81525f60048201526024015b60405180910390fd5b5f6103a68383336108cf565b9050836001600160a01b0316816001600160a01b0316146103f4576040516364283d7b60e01b81526001600160a01b0380861660048301526024820184905282166044820152606401610391565b50505050565b61041483838360405180602001604052805f815250610482565b505050565b5f6102a18261088a565b5f6001600160a01b03821661044d576040516322718ad960e21b81525f6004820152602401610391565b506001600160a01b03165f9081526003602052604090205490565b6060600180546102b5906112f0565b6103683383836109c1565b61048d84848461036c565b6103f484848484610a5f565b60606104a48261088a565b505f6104ba60408051602081019091525f815290565b90505f8151116104d85760405180602001604052805f815250610503565b806104e284610b85565b6040516020016104f392919061133f565b6040516020818303038152906040525b9392505050565b6006545f906105198682610c15565b60068054905f61052883611353565b90915550506040805160a0810182528681526001600160a01b038816602080830191909152338284015260608201879052608082018690525f8481526007909152919091208151819061057b90826113bb565b5060208201516001820180546001600160a01b039283166001600160a01b0319918216179091556040840151600284018054919093169116179055606082015160038201906105ca90826113bb565b50608082015160048201906105df90826113bb565b5091979650505050505050565b6001600160a01b039182165f90815260056020908152604080832093909416825291909152205460ff1690565b60605f8060608061062986610c2e565b6106755760405162461bcd60e51b815260206004820152601c60248201527f43657274696669636174696f6e20646f6573206e6f74206578697374000000006044820152606401610391565b5f86815260076020526040808220815160a0810190925280548290829061069b906112f0565b80601f01602080910402602001604051908101604052809291908181526020018280546106c7906112f0565b80156107125780601f106106e957610100808354040283529160200191610712565b820191905f5260205f20905b8154815290600101906020018083116106f557829003601f168201915b505050918352505060018201546001600160a01b039081166020830152600283015416604082015260038201805460609092019161074f906112f0565b80601f016020809104026020016040519081016040528092919081815260200182805461077b906112f0565b80156107c65780601f1061079d576101008083540402835291602001916107c6565b820191905f5260205f20905b8154815290600101906020018083116107a957829003601f168201915b505050505081526020016004820180546107df906112f0565b80601f016020809104026020016040519081016040528092919081815260200182805461080b906112f0565b80156108565780601f1061082d57610100808354040283529160200191610856565b820191905f5260205f20905b81548152906001019060200180831161083957829003601f168201915b5050509190925250508151602083015160408401516060850151608090950151929c919b5099509297509550909350505050565b5f818152600260205260408120546001600160a01b0316806102a157604051637e27328960e01b815260048101849052602401610391565b6104148383836001610c4f565b5f828152600260205260408120546001600160a01b03908116908316156108fb576108fb818486610d53565b6001600160a01b03811615610935576109165f855f80610c4f565b6001600160a01b0381165f90815260036020526040902080545f190190555b6001600160a01b03851615610963576001600160a01b0385165f908152600360205260409020805460010190555b5f8481526002602052604080822080546001600160a01b0319166001600160a01b0389811691821790925591518793918516917fddf252ad1be2c89b69c2b068fc378daa952ba7f163c4a11628f55a4df523b3ef91a4949350505050565b6001600160a01b0382166109f357604051630b61174360e31b81526001600160a01b0383166004820152602401610391565b6001600160a01b038381165f81815260056020908152604080832094871680845294825291829020805460ff191686151590811790915591519182527f17307eab39ab6107e8899845ad3d59bd9653f200f220920489ca2b5937696c31910160405180910390a3505050565b6001600160a01b0383163b156103f457604051630a85bd0160e11b81526001600160a01b0384169063150b7a0290610aa190339088908790879060040161147b565b6020604051808303815f875af1925050508015610adb575060408051601f3d908101601f19168201909252610ad8918101906114b7565b60015b610b42573d808015610b08576040519150601f19603f3d011682016040523d82523d5f602084013e610b0d565b606091505b5080515f03610b3a57604051633250574960e11b81526001600160a01b0385166004820152602401610391565b805181602001fd5b6001600160e01b03198116630a85bd0160e11b14610b7e57604051633250574960e11b81526001600160a01b0385166004820152602401610391565b5050505050565b60605f610b9183610db7565b60010190505f8167ffffffffffffffff811115610bb057610bb06110c1565b6040519080825280601f01601f191660200182016040528015610bda576020820181803683370190505b5090508181016020015b5f19016f181899199a1a9b1b9c1cb0b131b232b360811b600a86061a8153600a8504945084610be457509392505050565b610368828260405180602001604052805f815250610e8e565b5f8181526007602052604081208054610c46906112f0565b15159392505050565b8080610c6357506001600160a01b03821615155b15610d24575f610c728461088a565b90506001600160a01b03831615801590610c9e5750826001600160a01b0316816001600160a01b031614155b8015610cb15750610caf81846105ec565b155b15610cda5760405163a9fbf51f60e01b81526001600160a01b0384166004820152602401610391565b8115610d225783856001600160a01b0316826001600160a01b03167f8c5be1e5ebec7d5bd14f71427d1e84f3dd0314c0f7b2291e5b200ac8c7c3b92560405160405180910390a45b505b50505f90815260046020526040902080546001600160a01b0319166001600160a01b0392909216919091179055565b610d5e838383610ea4565b610414576001600160a01b038316610d8c57604051637e27328960e01b815260048101829052602401610391565b60405163177e802f60e01b81526001600160a01b038316600482015260248101829052604401610391565b5f8072184f03e93ff9f4daa797ed6e38ed64bf6a1f0160401b8310610df55772184f03e93ff9f4daa797ed6e38ed64bf6a1f0160401b830492506040015b6d04ee2d6d415b85acef81000000008310610e21576d04ee2d6d415b85acef8100000000830492506020015b662386f26fc100008310610e3f57662386f26fc10000830492506010015b6305f5e1008310610e57576305f5e100830492506008015b6127108310610e6b57612710830492506004015b60648310610e7d576064830492506002015b600a83106102a15760010192915050565b610e988383610f08565b6104145f848484610a5f565b5f6001600160a01b03831615801590610f005750826001600160a01b0316846001600160a01b03161480610edd5750610edd84846105ec565b80610f0057505f828152600460205260409020546001600160a01b038481169116145b949350505050565b6001600160a01b038216610f3157604051633250574960e11b81525f6004820152602401610391565b5f610f3d83835f6108cf565b90506001600160a01b03811615610414576040516339e3563760e11b81525f6004820152602401610391565b6001600160e01b031981168114610f7e575f80fd5b50565b5f60208284031215610f91575f80fd5b813561050381610f69565b5f81518084528060208401602086015e5f602082860101526020601f19601f83011685010191505092915050565b602081525f6105036020830184610f9c565b5f60208284031215610fec575f80fd5b5035919050565b80356001600160a01b0381168114611009575f80fd5b919050565b5f806040838503121561101f575f80fd5b61102883610ff3565b946020939093013593505050565b5f805f60608486031215611048575f80fd5b61105184610ff3565b925061105f60208501610ff3565b9150604084013590509250925092565b5f6020828403121561107f575f80fd5b61050382610ff3565b5f8060408385031215611099575f80fd5b6110a283610ff3565b9150602083013580151581146110b6575f80fd5b809150509250929050565b634e487b7160e01b5f52604160045260245ffd5b5f67ffffffffffffffff808411156110ef576110ef6110c1565b604051601f8501601f19908116603f01168101908282118183101715611117576111176110c1565b8160405280935085815286868601111561112f575f80fd5b858560208301375f602087830101525050509392505050565b5f805f806080858703121561115b575f80fd5b61116485610ff3565b935061117260208601610ff3565b925060408501359150606085013567ffffffffffffffff811115611194575f80fd5b8501601f810187136111a4575f80fd5b6111b3878235602084016110d5565b91505092959194509250565b5f82601f8301126111ce575f80fd5b610503838335602085016110d5565b5f805f80608085870312156111f0575f80fd5b6111f985610ff3565b9350602085013567ffffffffffffffff80821115611215575f80fd5b611221888389016111bf565b94506040870135915080821115611236575f80fd5b611242888389016111bf565b93506060870135915080821115611257575f80fd5b506111b3878288016111bf565b5f8060408385031215611275575f80fd5b61127e83610ff3565b915061128c60208401610ff3565b90509250929050565b60a081525f6112a760a0830188610f9c565b6001600160a01b0387811660208501528616604084015282810360608401526112d08186610f9c565b905082810360808401526112e48185610f9c565b98975050505050505050565b600181811c9082168061130457607f821691505b60208210810361132257634e487b7160e01b5f52602260045260245ffd5b50919050565b5f81518060208401855e5f93019283525090919050565b5f610f0061134d8386611328565b84611328565b5f6001820161137057634e487b7160e01b5f52601160045260245ffd5b5060010190565b601f82111561041457805f5260205f20601f840160051c8101602085101561139c5750805b601f840160051c820191505b81811015610b7e575f81556001016113a8565b815167ffffffffffffffff8111156113d5576113d56110c1565b6113e9816113e384546112f0565b84611377565b602080601f83116001811461141c575f84156114055750858301515b5f19600386901b1c1916600185901b178555611473565b5f85815260208120601f198616915b8281101561144a5788860151825594840194600190910190840161142b565b508582101561146757878501515f19600388901b60f8161c191681555b505060018460011b0185555b505050505050565b6001600160a01b03858116825284166020820152604081018390526080606082018190525f906114ad90830184610f9c565b9695505050505050565b5f602082840312156114c7575f80fd5b815161050381610f6956fea2646970667358221220fb206bab1662b28fbd8e1bb98d8e56f931a4de0d85baf7f8468731b72776521764736f6c63430008190033",
  "immutableReferences": {},
  "source": "// SPDX-License-Identifier: MIT\r\npragma solidity ^0.8.0;\r\n\r\nimport \"@openzeppelin/contracts/token/ERC721/ERC721.sol\";\r\n\r\ncontract Certification is ERC721 {\r\n    uint256 private _tokenIdCounter;\r\n    mapping(uint256 => CertificationData) private _certifications;\r\n\r\n    struct CertificationData {\r\n        string title;\r\n        address recipientAddress; // Updated field\r\n        address recipient; // New field\r\n        string issuer;\r\n        string metadata;\r\n    }\r\n\r\n    constructor() ERC721(\"Certification\", \"CERT\") {}\r\n\r\n    // Function to issue a new certification\r\n    function issueCertification(\r\n        address recipientAddress, // Updated parameter\r\n        string memory title,\r\n        string memory issuer,\r\n        string memory metadata\r\n    ) external returns (uint256) {\r\n        uint256 tokenId = _tokenIdCounter;\r\n        _safeMint(recipientAddress, tokenId);\r\n        _tokenIdCounter++;\r\n        _certifications[tokenId] = CertificationData(title, recipientAddress, msg.sender, issuer, metadata);\r\n        return tokenId;\r\n    }\r\n\r\n    function checkCertificationExists(uint256 tokenId) internal view returns (bool) {\r\n        return bytes(_certifications[tokenId].title).length != 0;\r\n    }\r\n\r\n    // Function to retrieve certification details\r\n    function getCertification(uint256 tokenId)\r\n        external\r\n        view\r\n        returns (\r\n            string memory title,\r\n            address recipientAddress, // Updated return value\r\n            address recipient, // New return value\r\n            string memory issuer,\r\n            string memory metadata\r\n        )\r\n    {\r\n        require(checkCertificationExists(tokenId), \"Certification does not exist\");\r\n        CertificationData memory certification = _certifications[tokenId];\r\n        return (certification.title, certification.recipientAddress, certification.recipient, certification.issuer, certification.metadata);\r\n    }\r\n}\r\n",
  "sourcePath": "E:\\Sem8\\BDLT lab\\Project\\nft-certification-app\\contracts\\Certification.sol",
  "compiler": {
    "name": "solc",
    "version": "0.8.25+commit.b61c2a91.Emscripten.clang"
  },
  "schemaVersion": "3.4.16",
  "updatedAt": "2024-04-07T14:00:53.635Z",
  "devdoc": {
    "errors": {
      "ERC721IncorrectOwner(address,uint256,address)": [
        {
          "details": "Indicates an error related to the ownership over a particular token. Used in transfers.",
          "params": {
            "owner": "Address of the current owner of a token.",
            "sender": "Address whose tokens are being transferred.",
            "tokenId": "Identifier number of a token."
          }
        }
      ],
      "ERC721InsufficientApproval(address,uint256)": [
        {
          "details": "Indicates a failure with the `operator`s approval. Used in transfers.",
          "params": {
            "operator": "Address that may be allowed to operate on tokens without being their owner.",
            "tokenId": "Identifier number of a token."
          }
        }
      ],
      "ERC721InvalidApprover(address)": [
        {
          "details": "Indicates a failure with the `approver` of a token to be approved. Used in approvals.",
          "params": {
            "approver": "Address initiating an approval operation."
          }
        }
      ],
      "ERC721InvalidOperator(address)": [
        {
          "details": "Indicates a failure with the `operator` to be approved. Used in approvals.",
          "params": {
            "operator": "Address that may be allowed to operate on tokens without being their owner."
          }
        }
      ],
      "ERC721InvalidOwner(address)": [
        {
          "details": "Indicates that an address can't be an owner. For example, `address(0)` is a forbidden owner in EIP-20. Used in balance queries.",
          "params": {
            "owner": "Address of the current owner of a token."
          }
        }
      ],
      "ERC721InvalidReceiver(address)": [
        {
          "details": "Indicates a failure with the token `receiver`. Used in transfers.",
          "params": {
            "receiver": "Address to which tokens are being transferred."
          }
        }
      ],
      "ERC721InvalidSender(address)": [
        {
          "details": "Indicates a failure with the token `sender`. Used in transfers.",
          "params": {
            "sender": "Address whose tokens are being transferred."
          }
        }
      ],
      "ERC721NonexistentToken(uint256)": [
        {
          "details": "Indicates a `tokenId` whose `owner` is the zero address.",
          "params": {
            "tokenId": "Identifier number of a token."
          }
        }
      ]
    },
    "events": {
      "Approval(address,address,uint256)": {
        "details": "Emitted when `owner` enables `approved` to manage the `tokenId` token."
      },
      "ApprovalForAll(address,address,bool)": {
        "details": "Emitted when `owner` enables or disables (`approved`) `operator` to manage all of its assets."
      },
      "Transfer(address,address,uint256)": {
        "details": "Emitted when `tokenId` token is transferred from `from` to `to`."
      }
    },
    "kind": "dev",
    "methods": {
      "approve(address,uint256)": {
        "details": "See {IERC721-approve}."
      },
      "balanceOf(address)": {
        "details": "See {IERC721-balanceOf}."
      },
      "getApproved(uint256)": {
        "details": "See {IERC721-getApproved}."
      },
      "isApprovedForAll(address,address)": {
        "details": "See {IERC721-isApprovedForAll}."
      },
      "name()": {
        "details": "See {IERC721Metadata-name}."
      },
      "ownerOf(uint256)": {
        "details": "See {IERC721-ownerOf}."
      },
      "safeTransferFrom(address,address,uint256)": {
        "details": "See {IERC721-safeTransferFrom}."
      },
      "safeTransferFrom(address,address,uint256,bytes)": {
        "details": "See {IERC721-safeTransferFrom}."
      },
      "setApprovalForAll(address,bool)": {
        "details": "See {IERC721-setApprovalForAll}."
      },
      "supportsInterface(bytes4)": {
        "details": "See {IERC165-supportsInterface}."
      },
      "symbol()": {
        "details": "See {IERC721Metadata-symbol}."
      },
      "tokenURI(uint256)": {
        "details": "See {IERC721Metadata-tokenURI}."
      },
      "transferFrom(address,address,uint256)": {
        "details": "See {IERC721-transferFrom}."
      }
    },
    "version": 1
  },
  "userdoc": {
    "kind": "user",
    "methods": {},
    "version": 1
  }
}